{
  "contractName": "MyChargingStation",
  "abi": [
    {
      "constant": true,
      "inputs": [
        {
          "name": "interfaceID",
          "type": "bytes4"
        }
      ],
      "name": "supportsInterface",
      "outputs": [
        {
          "name": "",
          "type": "bool"
        }
      ],
      "payable": false,
      "stateMutability": "view",
      "type": "function"
    },
    {
      "constant": true,
      "inputs": [],
      "name": "getERC165MappingImplementationInterfaceId",
      "outputs": [
        {
          "name": "",
          "type": "bytes4"
        }
      ],
      "payable": false,
      "stateMutability": "pure",
      "type": "function"
    },
    {
      "inputs": [
        {
          "name": "_geoLocation",
          "type": "string"
        },
        {
          "name": "_plugType",
          "type": "string"
        }
      ],
      "payable": false,
      "stateMutability": "nonpayable",
      "type": "constructor"
    },
    {
      "constant": true,
      "inputs": [],
      "name": "getChargingStationInterfaceId",
      "outputs": [
        {
          "name": "",
          "type": "bytes4"
        }
      ],
      "payable": false,
      "stateMutability": "view",
      "type": "function"
    },
    {
      "constant": true,
      "inputs": [],
      "name": "getGeoLocation",
      "outputs": [
        {
          "name": "",
          "type": "string"
        }
      ],
      "payable": false,
      "stateMutability": "view",
      "type": "function"
    },
    {
      "constant": true,
      "inputs": [],
      "name": "getPlugType",
      "outputs": [
        {
          "name": "",
          "type": "string"
        }
      ],
      "payable": false,
      "stateMutability": "view",
      "type": "function"
    }
  ],
  "bytecode": "0x608060405234801561001057600080fd5b5060405161077d38038061077d833981018060405281019080805182019291906020018051820192919050505060016000806301ffc9a77c0100000000000000000000000000000000000000000000000000000000027bffffffffffffffffffffffffffffffffffffffffffffffffffffffff19167bffffffffffffffffffffffffffffffffffffffffffffffffffffffff1916815260200190815260200160002060006101000a81548160ff0219169083151502179055506001600080634e411af77c01000000000000000000000000000000000000000000000000000000000263f3cf09747c010000000000000000000000000000000000000000000000000000000002187bffffffffffffffffffffffffffffffffffffffffffffffffffffffff19167bffffffffffffffffffffffffffffffffffffffffffffffffffffffff1916815260200190815260200160002060006101000a81548160ff02191690831515021790555081600190805190602001906101909291906101af565b5080600290805190602001906101a79291906101af565b505050610254565b828054600181600116156101000203166002900490600052602060002090601f016020900481019282601f106101f057805160ff191683800117855561021e565b8280016001018555821561021e579182015b8281111561021d578251825591602001919060010190610202565b5b50905061022b919061022f565b5090565b61025191905b8082111561024d576000816000905550600101610235565b5090565b90565b61051a806102636000396000f30060806040526004361061006d576000357c0100000000000000000000000000000000000000000000000000000000900463ffffffff16806301ffc9a7146100725780633c24223d146100d65780634e411af71461013f578063f3cf0974146101cf578063f563e77a1461025f575b600080fd5b34801561007e57600080fd5b506100bc60048036038101908080357bffffffffffffffffffffffffffffffffffffffffffffffffffffffff191690602001909291905050506102c8565b604051808215151515815260200191505060405180910390f35b3480156100e257600080fd5b506100eb61032f565b60405180827bffffffffffffffffffffffffffffffffffffffffffffffffffffffff19167bffffffffffffffffffffffffffffffffffffffffffffffffffffffff1916815260200191505060405180910390f35b34801561014b57600080fd5b5061015461035a565b6040518080602001828103825283818151815260200191508051906020019080838360005b83811015610194578082015181840152602081019050610179565b50505050905090810190601f1680156101c15780820380516001836020036101000a031916815260200191505b509250505060405180910390f35b3480156101db57600080fd5b506101e46103fc565b6040518080602001828103825283818151815260200191508051906020019080838360005b83811015610224578082015181840152602081019050610209565b50505050905090810190601f1680156102515780820380516001836020036101000a031916815260200191505b509250505060405180910390f35b34801561026b57600080fd5b5061027461049e565b60405180827bffffffffffffffffffffffffffffffffffffffffffffffffffffffff19167bffffffffffffffffffffffffffffffffffffffffffffffffffffffff1916815260200191505060405180910390f35b6000806000837bffffffffffffffffffffffffffffffffffffffffffffffffffffffff19167bffffffffffffffffffffffffffffffffffffffffffffffffffffffff1916815260200190815260200160002060009054906101000a900460ff169050919050565b60006301ffc9a77c010000000000000000000000000000000000000000000000000000000002905090565b606060018054600181600116156101000203166002900480601f0160208091040260200160405190810160405280929190818152602001828054600181600116156101000203166002900480156103f25780601f106103c7576101008083540402835291602001916103f2565b820191906000526020600020905b8154815290600101906020018083116103d557829003601f168201915b5050505050905090565b606060028054600181600116156101000203166002900480601f0160208091040260200160405190810160405280929190818152602001828054600181600116156101000203166002900480156104945780601f1061046957610100808354040283529160200191610494565b820191906000526020600020905b81548152906001019060200180831161047757829003601f168201915b5050505050905090565b6000634e411af77c01000000000000000000000000000000000000000000000000000000000263f3cf09747c010000000000000000000000000000000000000000000000000000000002189050905600a165627a7a72305820a1f8afc4a495428f4226d288679b23933a8dbc56ebcf1869c21263f008aa26dc0029",
  "source": "pragma solidity ^0.4.24;\r\n\r\nimport \"./ChargingStation.sol\";\r\nimport \"./ERC165MappingImplementation.sol\";\r\n\r\ncontract MyChargingStation is ChargingStation, ERC165MappingImplementation {\r\n\r\n\r\n    string private geoLocation;\r\n    string private plugType;\r\n\r\n    constructor(string _geoLocation, string _plugType) public {\r\n        supportedInterfaces[this.getPlugType.selector ^ this.getGeoLocation.selector] = true;\r\n\r\n        geoLocation = _geoLocation;\r\n        plugType = _plugType;\r\n    }\r\n\r\n    function getChargingStationInterfaceId() public view returns (bytes4){\r\n        return (this.getPlugType.selector ^ this.getGeoLocation.selector);\r\n    }\r\n\r\n    function getGeoLocation() public view returns (string) {\r\n        return geoLocation;\r\n    }\r\n\r\n    function getPlugType() public view returns (string) {\r\n        return plugType;\r\n    }\r\n\r\n\r\n}\r\n",
  "sourcePath": "C:\\Users\\WEJ1WA3\\Projects\\blockchained-mobility\\finding-agents\\charging-station\\contracts\\MyChargingStation.sol",
  "compiler": {
    "name": "solc",
    "version": "0.4.24+commit.e67f0147.Emscripten.clang"
  },
  "schemaVersion": "2.0.0",
  "updatedAt": "2018-07-21T17:34:46.716Z"
}