{
  "contractName": "MyChargingStation",
  "abi": [
    {
      "constant": true,
      "inputs": [
        {
          "name": "interfaceID",
          "type": "bytes4"
        }
      ],
      "name": "supportsInterface",
      "outputs": [
        {
          "name": "",
          "type": "bool"
        }
      ],
      "payable": false,
      "stateMutability": "view",
      "type": "function"
    },
    {
      "constant": true,
      "inputs": [],
      "name": "getERC165MappingImplementationInterfaceId",
      "outputs": [
        {
          "name": "",
          "type": "bytes4"
        }
      ],
      "payable": false,
      "stateMutability": "pure",
      "type": "function"
    },
    {
      "inputs": [
        {
          "name": "_geoLocation",
          "type": "string"
        },
        {
          "name": "_plugType",
          "type": "string"
        },
        {
          "name": "_iotaAddress",
          "type": "string"
        }
      ],
      "payable": false,
      "stateMutability": "nonpayable",
      "type": "constructor"
    },
    {
      "constant": true,
      "inputs": [],
      "name": "getIotaAddress",
      "outputs": [
        {
          "name": "",
          "type": "string"
        }
      ],
      "payable": false,
      "stateMutability": "view",
      "type": "function"
    },
    {
      "constant": true,
      "inputs": [],
      "name": "getGeoLocation",
      "outputs": [
        {
          "name": "",
          "type": "string"
        }
      ],
      "payable": false,
      "stateMutability": "view",
      "type": "function"
    },
    {
      "constant": true,
      "inputs": [],
      "name": "getPlugType",
      "outputs": [
        {
          "name": "",
          "type": "string"
        }
      ],
      "payable": false,
      "stateMutability": "view",
      "type": "function"
    }
  ],
  "bytecode": "0x608060405234801561001057600080fd5b5060405161083d38038061083d83398101806040528101908080518201929190602001805182019291906020018051820192919050505060016000806301ffc9a77c0100000000000000000000000000000000000000000000000000000000027bffffffffffffffffffffffffffffffffffffffffffffffffffffffff19167bffffffffffffffffffffffffffffffffffffffffffffffffffffffff1916815260200190815260200160002060006101000a81548160ff02191690831515021790555060016000806398edcbd27c010000000000000000000000000000000000000000000000000000000002634e411af77c01000000000000000000000000000000000000000000000000000000000263f3cf09747c01000000000000000000000000000000000000000000000000000000000218187bffffffffffffffffffffffffffffffffffffffffffffffffffffffff19167bffffffffffffffffffffffffffffffffffffffffffffffffffffffff1916815260200190815260200160002060006101000a81548160ff02191690831515021790555082600190805190602001906101bf9291906101f6565b5081600290805190602001906101d69291906101f6565b5080600390805190602001906101ed9291906101f6565b5050505061029b565b828054600181600116156101000203166002900490600052602060002090601f016020900481019282601f1061023757805160ff1916838001178555610265565b82800160010185558215610265579182015b82811115610264578251825591602001919060010190610249565b5b5090506102729190610276565b5090565b61029891905b8082111561029457600081600090555060010161027c565b5090565b90565b610593806102aa6000396000f30060806040526004361061006d576000357c0100000000000000000000000000000000000000000000000000000000900463ffffffff16806301ffc9a7146100725780633c24223d146100d65780634e411af71461013f57806398edcbd2146101cf578063f3cf09741461025f575b600080fd5b34801561007e57600080fd5b506100bc60048036038101908080357bffffffffffffffffffffffffffffffffffffffffffffffffffffffff191690602001909291905050506102ef565b604051808215151515815260200191505060405180910390f35b3480156100e257600080fd5b506100eb610356565b60405180827bffffffffffffffffffffffffffffffffffffffffffffffffffffffff19167bffffffffffffffffffffffffffffffffffffffffffffffffffffffff1916815260200191505060405180910390f35b34801561014b57600080fd5b50610154610381565b6040518080602001828103825283818151815260200191508051906020019080838360005b83811015610194578082015181840152602081019050610179565b50505050905090810190601f1680156101c15780820380516001836020036101000a031916815260200191505b509250505060405180910390f35b3480156101db57600080fd5b506101e4610423565b6040518080602001828103825283818151815260200191508051906020019080838360005b83811015610224578082015181840152602081019050610209565b50505050905090810190601f1680156102515780820380516001836020036101000a031916815260200191505b509250505060405180910390f35b34801561026b57600080fd5b506102746104c5565b6040518080602001828103825283818151815260200191508051906020019080838360005b838110156102b4578082015181840152602081019050610299565b50505050905090810190601f1680156102e15780820380516001836020036101000a031916815260200191505b509250505060405180910390f35b6000806000837bffffffffffffffffffffffffffffffffffffffffffffffffffffffff19167bffffffffffffffffffffffffffffffffffffffffffffffffffffffff1916815260200190815260200160002060009054906101000a900460ff169050919050565b60006301ffc9a77c010000000000000000000000000000000000000000000000000000000002905090565b606060018054600181600116156101000203166002900480601f0160208091040260200160405190810160405280929190818152602001828054600181600116156101000203166002900480156104195780601f106103ee57610100808354040283529160200191610419565b820191906000526020600020905b8154815290600101906020018083116103fc57829003601f168201915b5050505050905090565b606060038054600181600116156101000203166002900480601f0160208091040260200160405190810160405280929190818152602001828054600181600116156101000203166002900480156104bb5780601f10610490576101008083540402835291602001916104bb565b820191906000526020600020905b81548152906001019060200180831161049e57829003601f168201915b5050505050905090565b606060028054600181600116156101000203166002900480601f01602080910402602001604051908101604052809291908181526020018280546001816001161561010002031660029004801561055d5780601f106105325761010080835404028352916020019161055d565b820191906000526020600020905b81548152906001019060200180831161054057829003601f168201915b50505050509050905600a165627a7a72305820f7fe5177861f86e95e98eae72652cee43e1e22d6266e4f35a3389be501c7121d0029",
  "source": "pragma solidity ^0.4.24;\r\n\r\nimport \"./ChargingStation.sol\";\r\nimport \"./ERC165MappingImplementation.sol\";\r\n\r\ncontract MyChargingStation is ChargingStation, ERC165MappingImplementation {\r\n\r\n\r\n    string private geoLocation;\r\n    string private plugType;\r\n    string private iotaAddress;\r\n\r\n    constructor(string _geoLocation, string _plugType, string _iotaAddress) public {\r\n        supportedInterfaces[this.getPlugType.selector ^ this.getGeoLocation.selector ^ this.getIotaAddress.selector] = true;\r\n\r\n        geoLocation = _geoLocation;\r\n        plugType = _plugType;\r\n        iotaAddress = _iotaAddress;\r\n    }\r\n\r\n    function getIotaAddress() public view returns (string) {\r\n        return iotaAddress;\r\n    }\r\n\r\n    function getGeoLocation() public view returns (string) {\r\n        return geoLocation;\r\n    }\r\n\r\n    function getPlugType() public view returns (string) {\r\n        return plugType;\r\n    }\r\n\r\n\r\n}\r\n",
  "sourcePath": "C:\\Users\\WEJ1WA3\\Projects\\blockchained-mobility\\finding-agents\\charging-station\\contracts\\MyChargingStation.sol",
  "compiler": {
    "name": "solc",
    "version": "0.4.24+commit.e67f0147.Emscripten.clang"
  },
  "schemaVersion": "2.0.0",
  "updatedAt": "2018-07-22T09:23:24.408Z"
}